:100000000C9434000C9451000C9451000C94510049
:100010000C9451000C9451000C9451000C9451001C
:100020000C9451000C9451000C9451000C9451000C
:100030000C9451000C9451000C9451000C945100FC
:100040000C9451000C9451000C947C000C945100C1
:100050000C9451000C9451000C9451000C945100DC
:100060000C9451000C94510011241FBECFEFD8E026
:10007000DEBFCDBF11E0A0E0B1E0E8E6F4E002C0F1
:1000800005900D92A435B107D9F711E0A4E5B1E0D0
:1000900001C01D92A739B107E1F70E9453000C94EB
:1000A00032020C940000EF92FF920F931F93CF93B4
:1000B000DF9360E875E280E090E00E94A800C0E96C
:1000C000D1E080E091E00E94D3000E94C800882324
:1000D000E1F388EE93E0FE013197F1F70197D9F74C
:1000E0000E9429017B018C0188E191E00E94D300EC
:1000F000C7010E94D300E5CF1F920F920FB60F9257
:1001000011248F939F93EF93FF93809156019091C9
:10011000C600E82FF0E0E95AFE4F90838F5F80938E
:100120005601809156018F7380935601809154013E
:10013000803428F4809154018F5F80935401FF91A3
:10014000EF919F918F910F900FBE0F901F90189578
:100150009B01AC0180E28093C00088E98093C100DC
:1001600086E08093C20084E0220F331F441F551F96
:100170008A95D1F760E074E284EF90E00E94F50187
:10018000215030403093C5002093C40078940895E6
:10019000809154010895982F8091C00085FFFCCF75
:1001A0009093C6000895FC0107C08091C00085FFB0
:1001B000FCCF9093C600319690819923B1F70895B2
:1001C0009C01F9012F5F3F4F9491992339F0809161
:1001D000C00085FFFCCF9093C600F3CF08958091B7
:1001E0005401882311F4EFEF14C080915501E82FDA
:1001F000F0E0E95AFE4FE0818F5F809355018091D6
:1002000055018F73809355018091540181508093E3
:1002100054018E2F0895EF92FF921F93CF93DF9397
:100220007C0110E006C00E94EF00CE0DDF1D888328
:100230001F5F80915401C12FD0E08823A1F7CE0D1C
:10024000DF1D1882812FDF91CF911F91FF90EF90DA
:1002500008957F928F929F92AF92BF92CF92DF923A
:10026000EF92FF920F931F9388249924540119C091
:100270000E94EF00082FC501B4012AE030E040E001
:1002800050E00E94D601112707FD10950053104041
:100290004801AA2497FCA094BA2C860E971EA81E8B
:1002A000B91E0E94EF0080331CF70E94EF008A33D2
:1002B000FCF20E94EF00782ECC24DD24760119C0D8
:1002C0000E94EF00082FC701B6012AE030E040E0AD
:1002D00050E00E94D601112707FD109500531040F1
:1002E0006801EE24D7FCE094FE2CC60ED71EE81E53
:1002F000F91E0E94EF0080331CF70E94EF008A3342
:10030000FCF28BE2781669F0871524F08AE2781601
:10031000D9F51DC08DE2781659F08FE27816A1F557
:100320001FC0A7019601280D391D4A1D5B1D30C055
:100330008C149D04AE04BF041CF48FE291E022C033
:10034000A50194012C193D094E095F0921C0C7017F
:10035000B601A50194010E94D6019B01AC0118C011
:10036000C114D104E104F10459F0C501B401A7019D
:1003700096010E941702C901DA019C01AD0108C073
:100380008CE491E00E94D30020E030E040E050E0B7
:10039000B901CA011F910F91FF90EF90DF90CF90AC
:1003A000BF90AF909F908F907F900895629FD001F3
:1003B000739FF001829FE00DF11D649FE00DF11D20
:1003C000929FF00D839FF00D749FF00D659FF00DCF
:1003D0009927729FB00DE11DF91F639FB00DE11DBC
:1003E000F91FBD01CF0111240895A1E21A2EAA1B05
:1003F000BB1BFD010DC0AA1FBB1FEE1FFF1FA217D5
:10040000B307E407F50720F0A21BB30BE40BF50BD1
:10041000661F771F881F991F1A9469F7609570955A
:10042000809590959B01AC01BD01CF01089597FB8C
:10043000092E05260ED057FD04D0D7DF0AD0001CA8
:1004400038F450954095309521953F4F4F4F5F4F71
:100450000895F6F790958095709561957F4F8F4F31
:080460009F4F0895F894FFCFAF
:10046800556E65736974652062726F6A6E6920697A
:100478007A72617A3A200D000D0A20567265646E10
:100488006F737420697A72617A61206A6520004FFF
:1004980064757A696D6173206D616E6A6920627234
:1004A8006F6A206F6420766563656700475245531D
:0404B8004B41210093
:00000001FF
