:100000000C9434000C9451000C9451000C94510049
:100010000C9451000C9451000C9451000C9451001C
:100020000C9451000C9451000C9451000C9451000C
:100030000C9451000C9451000C9451000C945100FC
:100040000C9451000C9451000C9410010C9451002C
:100050000C9451000C9451000C9451000C945100DC
:100060000C9451000C94510011241FBECFEFD8E026
:10007000DEBFCDBF11E0A0E0B1E0E2E7F9E002C0F1
:1000800005900D92A433B107D9F711E0A4E3B1E0D4
:1000900001C01D92A737B107E1F70E9496000C94AA
:1000A000B7040C9400000F931F93DF93CF93CDB749
:1000B000DEB7C054D0400FB6F894DEBF0FBECDBF40
:1000C00000D000D000D0EDB7FEB731968E010F5FA3
:1000D0001F4FADB7BEB712961C930E93119720E039
:1000E00031E033832283992787FD9095958384831C
:1000F0000E94DF01EDB7FEB736960FB6F894FEBF4B
:100100000FBEEDBF02C00E945F01D8018D918D012D
:100110008823C9F7C05CDF4F0FB6F894DEBF0FBE6F
:10012000CDBFCF91DF911F910F9108958F929F9234
:10013000AF92BF92CF92DF92EF92FF921F93DF9325
:10014000CF93CDB7DEB7E0970FB6F894DEBF0FBE02
:10015000CDBF60E875E280E090E00E943C01DE01E6
:100160001196E3E0F1E08EE001900D928150E1F70D
:10017000188A1F86DE015196E3E1F1E089E00190E3
:100180000D928150E1F7FE017A9687E0DF011D9222
:100190008A95E9F7DE019196E3E2F1E080E10190D2
:1001A0000D928150E1F74E010894811C911C20E9C9
:1001B000A22E21E0B22E91E1C92ED12CCC0EDD1E53
:1001C00081E2E82EF12CEC0EFD1EC4010E946701B5
:1001D0000E945C018823E1F388EE93E0F5013197FA
:1001E000F1F70197D9F710E00DC00E948301813625
:1001F00041F0853631F0893621F08F3611F08537A0
:1002000009F41F5F0E945C01882379F7C6010E94F0
:100210006701812F0E945300C7010E946701D5CF5B
:100220001F920F920FB60F9211248F939F93EF930B
:10023000FF93809136019091C600E82FF0E0E95CD1
:10024000FE4F90838F5F80933601809136018F73CC
:100250008093360180913401803428F480913401F8
:100260008F5F80933401FF91EF919F918F910F9059
:100270000FBE0F901F9018959B01AC0180E28093F8
:10028000C00088E98093C10086E08093C20084E0CA
:10029000220F331F441F551F8A95D1F760E074E287
:1002A00084EF90E00E94BD01215030403093C500A2
:1002B0002093C40078940895809134010895982F74
:1002C0008091C00085FFFCCF9093C6000895FC018B
:1002D00007C08091C00085FFFCCF9093C600319687
:1002E00090819923B1F708959C01F9012F5F3F4F49
:1002F0009491992339F08091C00085FFFCCF9093B1
:10030000C600F3CF089580913401882311F4EFEFF4
:1003100014C080913501E82FF0E0E95CFE4FE081E8
:100320008F5F80933501809135018F738093350104
:10033000809134018150809334018E2F0895EF9283
:10034000FF921F93CF93DF937C0110E006C00E94C1
:100350008301CE0DDF1D88831F5F80913401C12F83
:10036000D0E08823A1F7CE0DDF1D1882812FDF9109
:10037000CF911F91FF90EF900895A1E21A2EAA1B32
:10038000BB1BFD010DC0AA1FBB1FEE1FFF1FA21745
:10039000B307E407F50720F0A21BB30BE40BF50B42
:1003A000661F771F881F991F1A9469F760957095CB
:1003B000809590959B01AC01BD01CF010895AEE001
:1003C000B0E0E5EEF1E00C948E040D891E8986E024
:1003D0008C831A8309838FEF9FE79E838D839E0111
:1003E000275E3F4FCE0101966F89788DA9010E944B
:1003F00003022F813885020F131FF80110822E96F9
:10040000E4E00C94AA04ABE0B0E0E9E0F2E00C9484
:1004100080043C012B015A01FC0117821682838162
:1004200081FD03C06FEF7FEFC6C19AE0892E1E01E8
:100430000894211C311CF3012381F20123FD8591D5
:1004400023FF81912F01882309F4B2C1853239F449
:1004500023FD859123FF81912F01853229F490E0BE
:10046000B3010E94F603E7CF982FFF24EE249924CE
:10047000FFE1FF15D0F09B3269F09C3228F49032F6
:1004800059F0933291F40EC09D3249F0903369F4E3
:1004900041E024C052E0F52A84E0F82A28C098E020
:1004A000F92A25C0E0E1FE2A22C0F7FC29C0892FE5
:1004B00080538A3070F4F6FE05C0989C902C11246D
:1004C000980E15C0E89CE02C1124E80EF0E2FF2AFB
:1004D0000EC09E3229F4F6FC6BC140E4F42A07C03A
:1004E0009C3619F450E8F52A02C0983649F4F20116
:1004F00023FD959123FF91912F01992309F0B8CF06
:10050000892F8554833018F08052833038F444E0CA
:1005100050E0A40EB51E5FE359830FC0933631F04F
:10052000933779F0933509F056C020C0F5018081EA
:10053000898342E050E0A40EB51E610101E010E0A5
:1005400012C0F501C080D180F6FC03C06FEF7FEFD1
:1005500002C0692D70E042E050E0A40EB51EC60155
:100560000E94EB038C015FE7F52214C0F501C08007
:10057000D180F6FC03C06FEF7FEF02C0692D70E001
:1005800042E050E0A40EB51EC6010E94E0038C01BB
:1005900050E8F52AF3FE07C01AC080E290E0B301EC
:1005A0000E94F603EA948E2D90E008171907A8F32D
:1005B0000EC0F601F7FC8591F7FE81916F0190E086
:1005C000B3010E94F603E110EA94015010400115B6
:1005D000110579F7EAC0943611F0993669F5F7FEFE
:1005E00008C0F501208131814281538184E090E08F
:1005F0000AC0F501808191819C01442737FD409517
:10060000542F82E090E0A80EB91E9FE6F92257FF12
:1006100009C050954095309521953F4F4F4F5F4F02
:10062000E0E8FE2ACA01B901A1012AE030E00E94F7
:100630002204D82ED21840C0953729F41F2D1F7ED2
:100640002AE030E01DC01F2D197F9F3661F09037E2
:1006500020F4983509F0ACC00FC0903739F09837C6
:1006600009F0A6C004C028E030E00AC0106114FD03
:10067000146020E130E004C014FD166020E132E097
:1006800017FF08C0F501608171818281938144E088
:1006900050E008C0F50180819181BC0180E090E0CC
:1006A00042E050E0A40EB51EA1010E942204D82E03
:1006B000D2188FE7F82EF122F6FE0BC05EEFF5227E
:1006C000D91438F4F4FE07C0F2FC05C08FEEF8220E
:1006D00002C01D2D01C0192DF4FE0DC0FE01ED0D4F
:1006E000F11D8081803319F499EEF92208C01F5F53
:1006F000F2FE05C003C08F2D867809F01F5F0F2D15
:10070000F3FC14C0F0FE0FC01E1510F09D2C0BC0A2
:100710009D2C9E0C911A1E2D06C080E290E0B30124
:100720000E94F6031F5F1E15C0F304C01E1510F4CF
:10073000E11A01C0EE2404FF0FC080E390E0B30192
:100740000E94F60302FF1DC001FD03C088E790E090
:100750000EC088E590E00BC0802F867891F001FFF5
:1007600002C08BE201C080E2F7FC8DE290E0B301B1
:100770000E94F60306C080E390E0B3010E94F603F6
:100780009A94D914C0F3DA94F101ED0DF11D808132
:1007900090E0B3010E94F603DD20A9F706C080E2D5
:1007A00090E0B3010E94F603EA94EE20C1F743CE35
:1007B000F30166817781CB012B96E2E10C949C04D6
:1007C000FC010590615070400110D8F7809590951C
:1007D0008E0F9F1F0895FC01615070400190011021
:1007E000D8F7809590958E0F9F1F08950F931F93B4
:1007F000CF93DF938C01EB018B8181FF1BC082FFC4
:100800000DC02E813F818C819D812817390764F4AA
:10081000E881F9810193F983E88306C0E885F985C9
:10082000802F0995892B31F48E819F8101969F83BA
:100830008E8302C00FEF1FEFC801DF91CF911F9190
:100840000F910895FA01AA27283051F1203181F142
:10085000E8946F936E7F6E5F7F4F8F4F9F4FAF4FC8
:10086000B1E03ED0B4E03CD0670F781F891F9A1FDB
:10087000A11D680F791F8A1F911DA11D6A0F711D8F
:10088000811D911DA11D20D009F468943F912AE09B
:10089000269F11243019305D3193DEF6CF01089583
:1008A000462F4770405D4193B3E00FD0C9F7F6CFB4
:1008B000462F4F70405D4A3318F0495D31FD40527C
:1008C000419302D0A9F7EACFB4E0A6959795879512
:1008D00077956795BA95C9F70097610571050895F1
:1008E0009B01AC010A2E069457954795379527959D
:1008F000BA95C9F7620F731F841F951FA01D089535
:100900002F923F924F925F926F927F928F929F921F
:10091000AF92BF92CF92DF92EF92FF920F931F930D
:10092000CF93DF93CDB7DEB7CA1BDB0B0FB6F894BE
:10093000DEBF0FBECDBF09942A88398848885F84FE
:100940006E847D848C849B84AA84B984C884DF806F
:10095000EE80FD800C811B81AA81B981CE0FD11D53
:100960000FB6F894DEBF0FBECDBFED010895F89429
:02097000FFCFB7
:10097200256400556E6573697465207265633A0D6E
:1009820000000052656320696D61200000000000D4
:100992000000002073616D6F676C61736E696B613B
:0409A2002E0D000016
:00000001FF
