:100000000C9434000C9451000C9451000C94510049
:100010000C9451000C9451000C9451000C9451001C
:100020000C9451000C9451000C9451000C9451000C
:100030000C9451000C9451000C9451000C945100FC
:100040000C9451000C9451000C94D3000C9451006A
:100050000C9451000C9451000C9451000C945100DC
:100060000C9451000C94510011241FBECFEFD8E026
:10007000DEBFCDBF11E0A0E0B1E0E8E4F3E002C0F4
:1000800005900D92A036B107D9F711E0A0E6B1E0D6
:1000900001C01D92A33AB107E1F70E9453000C94EE
:1000A000A2010C9400008F929F92AF92BF92CF92C8
:1000B000DF92EF92FF920F931F93DF93CF93CDB711
:1000C000DEB7C05AD0400FB6F894DEBF0FBECDBF2A
:1000D00060E875E280E090E00E94FF00FE01EF59C9
:1000E000FF4F9F0140E051E08EE1DA010D90AD013C
:1000F000D9010D929D018150C1F77E9682E2DF0108
:100100001D928A95E9F7DE011196E0E4F1E089E0BD
:1001100001900D928150E1F7FE013A9687E0DF01F0
:100120001D928A95E9F7DE015196E0E5F1E086E05F
:1001300001900D928150E1F7FE0177968AE0DF0190
:100140001D928A95E9F721E6822E912C8C0E9D1E38
:1001500090E9A92E91E0B92E8E010F5D1F4F6E011F
:100160000894C11CD11C81E1E82EF12CEC0EFD1E7F
:10017000C4010E942A010E941F018823E1F388EE36
:1001800093E0F5013197F1F70197D9F7C8010E9483
:100190006201C6010E942A01C8010E942A01C7010A
:1001A0000E942A01E5CF1F920F920FB60F921124E1
:1001B0008F939F93EF93FF93809162019091C6007C
:1001C000E82FF0E0ED59FE4F90838F5F809362013E
:1001D000809162018F73809362018091600180340D
:1001E00028F4809160018F5F80936001FF91EF910F
:1001F0009F918F910F900FBE0F901F9018959B01AC
:10020000AC0180E28093C00088E98093C10086E061
:100210008093C20084E0220F331F441F551F8A952C
:10022000D1F760E074E284EF90E00E9480012150F9
:1002300030403093C5002093C40078940895809195
:1002400060010895982F8091C00085FFFCCF9093A6
:10025000C6000895FC0107C08091C00085FFFCCF57
:100260009093C600319690819923B1F708959C012F
:10027000F9012F5F3F4F9491992339F08091C0008D
:1002800085FFFCCF9093C600F3CF08958091600165
:10029000882311F4EFEF14C080916101E82FF0E0A2
:1002A000ED59FE4FE0818F5F809361018091610184
:1002B0008F73809361018091600181508093600110
:1002C0008E2F0895EF92FF921F93CF93DF937C01BF
:1002D00010E006C00E944601CE0DDF1D88831F5F1F
:1002E00080916001C12FD0E08823A1F7CE0DDF1DE2
:1002F0001882812FDF91CF911F91FF90EF90089589
:10030000A1E21A2EAA1BBB1BFD010DC0AA1FBB1F19
:10031000EE1FFF1FA217B307E407F50720F0A21B8B
:10032000B30BE40BF50B661F771F881F991F1A94F8
:1003300069F760957095809590959B01AC01BD0122
:08034000CF010895F894FFCFEE
:10034800556E65736974652073766F6A6520696D8B
:10035800652069207072657A696D653A0D00000044
:100368000000000000000000000000000000000085
:100378000000000000000000000000000000000075
:100388005A647261766F2C200000000000000000A3
:100398002E203A290D000000000000000000000097
:00000001FF
