:100000000C9434000C9451000C9451000C94510049
:100010000C9451000C9451000C9451000C9451001C
:100020000C9451000C9451000C9451000C9451000C
:100030000C9451000C9451000C9451000C945100FC
:100040000C9451000C9451000C94F8000C94510045
:100050000C9451000C9451000C9451000C945100DC
:100060000C9451000C94510011241FBECFEFD8E026
:10007000DEBFCDBF11E0A0E0B1E0E2E9F3E002C0F5
:1000800005900D92AE32B107D9F711E0AEE2B1E0C2
:1000900001C01D92A137B107E1F70E9453000C94F3
:1000A000C7010C940000CF92DF92EF92FF920F9362
:1000B0001F93DF93CF93CDB7DEB7C055D0400FB6B7
:1000C000F894DEBF0FBECDBF60E875E280E090E03F
:1000D0000E942401DE011196EDE1F1E080E1019042
:1000E0000D928150E1F76E010894C11CD11C80E98A
:1000F000E82E81E0F82E8E010F5E1F4FC6010E9490
:100100004F010E9444018823E1F388EE93E0F70158
:100110003197F1F70197D9F7C8010E948701C8010B
:100120000E949C00882319F080E091E002C08FE0DB
:1001300091E00E944F01E2CFDF92EF92FF920F9386
:100140001F93DF93CF93CDB7DEB76A970FB6F894BE
:10015000DEBF0FBECDBFBC01AE014F5F5F4FDA0106
:10016000CE014B961D92A817B907E1F71EC020E0FB
:1001700030E0082F112707FD1095C9018F599F4FB7
:100180000817190731F0C9018F5B9F4F081719072E
:1001900021F4F701E20FF31FD0822F5F3F4F2A3186
:1001A000310559F76F5F7F4F06C07E010894E11C4F
:1001B000F11CDD24D394FB0180818823C1F691E0FA
:1001C000FA018191AF019823EA17FB07C9F7892F3C
:1001D000911181E06A960FB6F894DEBF0FBECDBFD5
:1001E000CF91DF911F910F91FF90EF90DF900895D5
:1001F0001F920F920FB60F9211248F939F93EF933C
:10020000FF93809130019091C600E82FF0E0EF5C01
:10021000FE4F90838F5F80933001809130018F7308
:100220008093300180912E01803428F480912E013A
:100230008F5F80932E01FF91EF919F918F910F908F
:100240000FBE0F901F9018959B01AC0180E2809328
:10025000C00088E98093C10086E08093C20084E0FA
:10026000220F331F441F551F8A95D1F760E074E2B7
:1002700084EF90E00E94A501215030403093C500EA
:100280002093C4007894089580912E010895982FAA
:100290008091C00085FFFCCF9093C6000895FC01BB
:1002A00007C08091C00085FFFCCF9093C6003196B7
:1002B00090819923B1F708959C01F9012F5F3F4F79
:1002C0009491992339F08091C00085FFFCCF9093E1
:1002D000C600F3CF089580912E01882311F4EFEF2B
:1002E00014C080912F01E82FF0E0EF5CFE4FE08119
:1002F0008F5F80932F0180912F018F7380932F0147
:1003000080912E01815080932E018E2F0895EF92BF
:10031000FF921F93CF93DF937C0110E006C00E94F1
:100320006B01CE0DDF1D88831F5F80912E01C12FD1
:10033000D0E08823A1F7CE0DDF1D1882812FDF9139
:10034000CF911F91FF90EF900895A1E21A2EAA1B62
:10035000BB1BFD010DC0AA1FBB1FEE1FFF1FA21775
:10036000B307E407F50720F0A21BB30BE40BF50B72
:10037000661F771F881F991F1A9469F760957095FB
:10038000809590959B01AC01BD01CF010895F89433
:02039000FFCF9D
:100392006A657374652070616E6772616D0D006EBF
:1003A200696A652070616E6772616D0D00556E65D8
:0E03B2007369746520737472696E673A0D008A
:00000001FF
