:100000000C9434000C9451000C9451000C94510049
:100010000C9451000C9451000C9451000C9451001C
:100020000C9451000C9451000C9451000C9451000C
:100030000C9451000C9451000C9451000C945100FC
:100040000C9451000C9451000C9417010C94510025
:100050000C9451000C9451000C9451000C945100DC
:100060000C9451000C94510011241FBECFEFD8E026
:10007000DEBFCDBF11E0A0E0B1E0E0E8F9E002C0F2
:1000800005900D92A232B107D9F711E0A2E2B1E0DA
:1000900001C01D92A536B107E1F70E94D5000C946E
:1000A000BE040C9400000F931F93DF93CF93CDB742
:1000B000DEB7C054D0400FB6F894DEBF0FBECDBF40
:1000C00000D000D000D0EDB7FEB731968E010F5FA3
:1000D0001F4FADB7BEB712961C930E93119720E039
:1000E00031E033832283992787FD9095958384831C
:1000F0000E94E601EDB7FEB736960FB6F894FEBF44
:100100000FBEEDBF05C0992787FD90950E9466013F
:10011000D8018D918D018823B1F7C05CDF4F0FB6F8
:10012000F894DEBF0FBECDBFCF91DF911F910F912D
:1001300008950F931F93582FA82FB92FFD010190F9
:100140000020E9F731970E2F081BFB0101900020DA
:10015000E9F731971E2F161B282F392FC901FC01F3
:1001600040E00BC09C918081981709F44F5F119675
:100170008A2F861B8117B1F731968E2F851B80172A
:1001800011F0DB01F5CF842F1F910F910895CF93CC
:10019000DF93EC010E948A018883FE0121968A3355
:1001A000C9F71082DF91CF910895CF92DF92EF923D
:1001B000FF920F931F93DF93CF93CDB7DEB7C05855
:1001C000D0400FB6F894DEBF0FBECDBF60E875E239
:1001D00080E090E00E94430180E9C82E81E0D82EA3
:1001E0007E010894E11CF11C8E010F5B1F4F83E020
:1001F00091E00E946E010E9463018823E1F388EE82
:1002000093E0F6013197F1F70197D9F7C7010E9402
:10021000C700C8010E94A601C701B8010E94990049
:100220000E94530080E291E00E946E01E0CF1F9295
:100230000F920FB60F9211248F939F93EF93FF931A
:10024000809124019091C600E82FF0E0EB5DFE4F15
:1002500090838F5F80932401809124018F7380931A
:10026000240180912201803428F4809122018F5F43
:1002700080932201FF91EF919F918F910F900FBE7C
:100280000F901F9018959B01AC0180E28093C000F5
:1002900088E98093C10086E08093C20084E0220F49
:1002A000331F441F551F8A95D1F760E074E284EF35
:1002B00090E00E94C401215030403093C50020934B
:1002C000C40078940895809122010895982F809118
:1002D000C00085FFFCCF9093C6000895FC0107C0C5
:1002E0008091C00085FFFCCF9093C600319690812D
:1002F0009923B1F708959C01F9012F5F3F4F949125
:10030000992339F08091C00085FFFCCF9093C600FF
:10031000F3CF089580912201882311F4EFEF14C0E8
:1003200080912301E82FF0E0EB5DFE4FE0818F5FCD
:1003300080932301809123018F7380932301809107
:1003400022018150809322018E2F0895EF92FF9217
:100350001F93CF93DF937C0110E006C00E948A01B7
:10036000CE0DDF1D88831F5F80912201C12FD0E059
:100370008823A1F7CE0DDF1D1882812FDF91CF9149
:100380001F91FF90EF900895A1E21A2EAA1BBB1BAC
:10039000FD010DC0AA1FBB1FEE1FFF1FA217B30751
:1003A000E407F50720F0A21BB30BE40BF50B661F67
:1003B000771F881F991F1A9469F76095709580952B
:1003C00090959B01AC01BD01CF010895AEE0B0E076
:1003D000ECEEF1E00C9495040D891E8986E08C8387
:1003E0001A8309838FEF9FE79E838D839E01275E8B
:1003F0003F4FCE0101966F89788DA9010E940A02B4
:100400002F813885020F131FF80110822E96E4E029
:100410000C94B104ABE0B0E0E0E1F2E00C948704AE
:100420003C012B015A01FC0117821682838181FD58
:1004300003C06FEF7FEFC6C19AE0892E1E010894BA
:10044000211C311CF3012381F20123FD859123FF3F
:1004500081912F01882309F4B2C1853239F423FD3B
:10046000859123FF81912F01853229F490E0B3011A
:100470000E94FD03E7CF982FFF24EE249924FFE18B
:10048000FF15D0F09B3269F09C3228F4903259F07D
:10049000933291F40EC09D3249F0903369F441E0FB
:1004A00024C052E0F52A84E0F82A28C098E0F92A0E
:1004B00025C0E0E1FE2A22C0F7FC29C0892F805325
:1004C0008A3070F4F6FE05C0989C902C1124980E8A
:1004D00015C0E89CE02C1124E80EF0E2FF2A0EC0C3
:1004E0009E3229F4F6FC6BC140E4F42A07C09C3626
:1004F00019F450E8F52A02C0983649F4F20123FDB8
:10050000959123FF91912F01992309F0B8CF892F5D
:100510008554833018F08052833038F444E050E042
:10052000A40EB51E5FE359830FC0933631F09337A5
:1005300079F0933509F056C020C0F5018081898398
:1005400042E050E0A40EB51E610101E010E012C0CF
:10055000F501C080D180F6FC03C06FEF7FEF02C0D1
:10056000692D70E042E050E0A40EB51EC6010E9465
:10057000F2038C015FE7F52214C0F501C080D18041
:10058000F6FC03C06FEF7FEF02C0692D70E042E020
:1005900050E0A40EB51EC6010E94E7038C0150E88E
:1005A000F52AF3FE07C01AC080E290E0B3010E9472
:1005B000FD03EA948E2D90E008171907A8F30EC0EA
:1005C000F601F7FC8591F7FE81916F0190E0B30190
:1005D0000E94FD03E110EA9401501040011511053D
:1005E00079F7EAC0943611F0993669F5F7FE08C03C
:1005F000F501208131814281538184E090E00AC07D
:10060000F501808191819C01442737FD4095542F4D
:1006100082E090E0A80EB91E9FE6F92257FF09C0BC
:1006200050954095309521953F4F4F4F5F4FE0E8F3
:10063000FE2ACA01B901A1012AE030E00E94290482
:10064000D82ED21840C0953729F41F2D1F7E2AE0DE
:1006500030E01DC01F2D197F9F3661F0903720F4C8
:10066000983509F0ACC00FC0903739F0983709F0D1
:10067000A6C004C028E030E00AC0106114FD146078
:1006800020E130E004C014FD166020E132E017FFE5
:1006900008C0F501608171818281938144E050E05E
:1006A00008C0F50180819181BC0180E090E042E0CA
:1006B00050E0A40EB51EA1010E942904D82ED21824
:1006C0008FE7F82EF122F6FE0BC05EEFF522D9146B
:1006D00038F4F4FE07C0F2FC05C08FEEF82202C029
:1006E0001D2D01C0192DF4FE0DC0FE01ED0DF11DF3
:1006F0008081803319F499EEF92208C01F5FF2FE61
:1007000005C003C08F2D867809F01F5F0F2DF3FC05
:1007100014C0F0FE0FC01E1510F09D2C0BC09D2CB8
:100720009E0C911A1E2D06C080E290E0B3010E943B
:10073000FD031F5F1E15C0F304C01E1510F4E11A5F
:1007400001C0EE2404FF0FC080E390E0B3010E94DB
:10075000FD0302FF1DC001FD03C088E790E00EC04D
:1007600088E590E00BC0802F867891F001FF02C0F1
:100770008BE201C080E2F7FC8DE290E0B3010E94C1
:10078000FD0306C080E390E0B3010E94FD039A944C
:10079000D914C0F3DA94F101ED0DF11D808190E0E0
:1007A000B3010E94FD03DD20A9F706C080E290E0BE
:1007B000B3010E94FD03EA94EE20C1F743CEF3019A
:1007C00066817781CB012B96E2E10C94A304FC01B6
:1007D0000590615070400110D8F7809590958E0F6C
:1007E0009F1F0895FC016150704001900110D8F7DF
:1007F000809590958E0F9F1F08950F931F93CF9311
:10080000DF938C01EB018B8181FF1BC082FF0DC048
:100810002E813F818C819D812817390764F4E881FE
:10082000F9810193F983E88306C0E885F985802F73
:100830000995892B31F48E819F8101969F838E8348
:1008400002C00FEF1FEFC801DF91CF911F910F91F1
:100850000895FA01AA27283051F1203181F1E89456
:100860006F936E7F6E5F7F4F8F4F9F4FAF4FB1E0A3
:100870003ED0B4E03CD0670F781F891F9A1FA11D9E
:10088000680F791F8A1F911DA11D6A0F711D811D9F
:10089000911DA11D20D009F468943F912AE0269F64
:1008A00011243019305D3193DEF6CF010895462FC3
:1008B0004770405D4193B3E00FD0C9F7F6CF462FA4
:1008C0004F70405D4A3318F0495D31FD405241930D
:1008D00002D0A9F7EACFB4E0A695979587957795CA
:1008E0006795BA95C9F700976105710508959B0151
:1008F000AC010A2E06945795479537952795BA95DA
:10090000C9F7620F731F841F951FA01D08952F92B2
:100910003F924F925F926F927F928F929F92AF928F
:10092000BF92CF92DF92EF92FF920F931F93CF93DC
:10093000DF93CDB7DEB7CA1BDB0B0FB6F894DEBF73
:100940000FBECDBF09942A88398848885F846E8499
:100950007D848C849B84AA84B984C884DF80EE80E3
:10096000FD800C811B81AA81B981CE0FD11D0FB6EC
:10097000F894DEBF0FBECDBFED010895F894FFCF10
:10098000256400556E6573697465206472616775CE
:100990006C6A652069206B616D656E6A653A0D0051
:0209A0000D0048
:00000001FF
