:100000000C9434000C9451000C9451000C94510049
:100010000C9451000C9451000C9451000C9451001C
:100020000C9451000C9451000C9451000C9451000C
:100030000C9451000C9451000C9451000C945100FC
:100040000C9451000C9451000C94A9000C94510094
:100050000C9451000C9451000C9451000C945100DC
:100060000C9451000C94510011241FBECFEFD8E026
:10007000DEBFCDBF11E0A0E0B1E0E4EFF2E002C0EE
:1000800005900D92A231B107D9F711E0A2E1B1E0DC
:1000900001C01D92A535B107E1F70E9460000C94E4
:1000A00078010C940000FC0107C0892F81568A3129
:1000B00010F490529083319690819923B1F708956E
:1000C000CF92DF92EF92FF920F931F93DF93CF9324
:1000D000CDB7DEB7C055D0400FB6F894DEBF0FBE27
:1000E000CDBF60E875E280E090E00E94D500DE01BF
:1000F0001196E2E0F1E08EE001900D928150E1F77F
:10010000188A1F866E010894C11CD11C80E9E82E54
:1001100081E0F82E8E010F5E1F4FC6010E94000184
:100120000E94F5008823E1F388EE93E0F701319710
:10013000F1F70197D9F7C8010E943801C8010E9460
:100140005300C8010E94000180E091E00E9400017C
:10015000E4CF1F920F920FB60F9211248F939F93AB
:10016000EF93FF93809114019091C600E82FF0E087
:10017000EB5EFE4F90838F5F80931401809114019A
:100180008F738093140180911201803428F4809140
:1001900012018F5F80931201FF91EF919F918F91D8
:1001A0000F900FBE0F901F9018959B01AC0180E23D
:1001B0008093C00088E98093C10086E08093C200EC
:1001C00084E0220F331F441F551F8A95D1F760E04A
:1001D00074E284EF90E00E94560121503040309349
:1001E000C5002093C4007894089580911201089569
:1001F000982F8091C00085FFFCCF9093C600089592
:10020000FC0107C08091C00085FFFCCF9093C60021
:10021000319690819923B1F708959C01F9012F5FE0
:100220003F4F9491992339F08091C00085FFFCCF16
:100230009093C600F3CF089580911201882311F4A2
:10024000EFEF14C080911301E82FF0E0EB5EFE4F5A
:10025000E0818F5F80931301809113018F738093EE
:100260001301809112018150809312018E2F089505
:10027000EF92FF921F93CF93DF937C0110E006C0B3
:100280000E941C01CE0DDF1D88831F5F809112012B
:10029000C12FD0E08823A1F7CE0DDF1D1882812F5A
:1002A000DF91CF911F91FF90EF900895A1E21A2E58
:1002B000AA1BBB1BFD010DC0AA1FBB1FEE1FFF1F0A
:1002C000A217B307E407F50720F0A21BB30BE40B5A
:1002D000F50B661F771F881F991F1A9469F76095A1
:1002E0007095809590959B01AC01BD01CF0108955B
:0402F000F894FFCFB0
:1002F4000D00556E6573697465207265633A0D006F
:020304000000F7
:00000001FF
