:100000000C9434000C9451000C9451000C94510049
:100010000C9451000C9451000C9451000C9451001C
:100020000C9451000C9451000C9451000C9451000C
:100030000C9451000C9451000C9451000C945100FC
:100040000C9451000C9451000C9482000C945100BB
:100050000C9451000C9451000C9451000C945100DC
:100060000C9451000C94510011241FBECFEFD8E026
:10007000DEBFCDBF11E0A0E0B1E0E6EAF2E002C0F1
:1000800005900D92A031B107D9F711E0A0E1B1E0E0
:1000900001C01D92A335B107E1F70E9453000C94F3
:1000A00051010C940000EF92FF920F931F93DF9386
:1000B000CF93CDB7DEB760970FB6F894DEBF0FBE13
:1000C000CDBFDE011196E0E0F1E08FE001900D92EE
:1000D0008150E1F7188A60E875E280E090E00E94C4
:1000E000AE007E010894E11CF11C00E911E0C7019B
:1000F0000E94D90080E197E2F8013197F1F701976A
:10010000D9F7F5CF1F920F920FB60F9211248F934C
:100110009F93EF93FF93809112019091C600E82F77
:10012000F0E0ED5EFE4F90838F5F8093120180912F
:1001300012018F738093120180911001803428F492
:10014000809110018F5F80931001FF91EF919F913B
:100150008F910F900FBE0F901F9018959B01AC01CF
:1001600080E28093C00088E98093C10086E080939C
:10017000C20084E0220F331F441F551F8A95D1F718
:1001800060E074E284EF90E00E942F012150304043
:100190003093C5002093C400789408958091100195
:1001A0000895982F8091C00085FFFCCF9093C600E2
:1001B0000895FC0107C08091C00085FFFCCF90939B
:1001C000C600319690819923B1F708959C01F901F9
:1001D0002F5F3F4F9491992339F08091C00085FFA4
:1001E000FCCF9093C600F3CF08958091100188232F
:1001F00011F4EFEF14C080911101E82FF0E0ED5EF3
:10020000FE4FE0818F5F80931101809111018F7308
:1002100080931101809110018150809310018E2FE5
:100220000895EF92FF921F93CF93DF937C0110E02C
:1002300006C00E94F500CE0DDF1D88831F5F8091F0
:100240001001C12FD0E08823A1F7CE0DDF1D188249
:10025000812FDF91CF911F91FF90EF900895A1E240
:100260001A2EAA1BBB1BFD010DC0AA1FBB1FEE1F30
:10027000FF1FA217B307E407F50720F0A21BB30B7B
:10028000E40BF50B661F771F881F991F1A9469F7F7
:1002900060957095809590959B01AC01BD01CF0153
:0602A0000895F894FFCF61
:1002A60048656C6C6F20776F726C64210D0A0000D4
:00000001FF
